{
  "address": "0xb30714F68002F901406d68B9648ABb9851F0d318",
  "abi": [
    {
      "inputs": [
        {
          "internalType": "address",
          "name": "usdc",
          "type": "address"
        }
      ],
      "stateMutability": "nonpayable",
      "type": "constructor"
    },
    {
      "inputs": [],
      "name": "ContentNotActive",
      "type": "error"
    },
    {
      "inputs": [],
      "name": "ContentNotFound",
      "type": "error"
    },
    {
      "inputs": [
        {
          "internalType": "uint8",
          "name": "got",
          "type": "uint8"
        },
        {
          "internalType": "uint8",
          "name": "expected",
          "type": "uint8"
        }
      ],
      "name": "InvalidEncryptedInput",
      "type": "error"
    },
    {
      "inputs": [],
      "name": "InvalidKeyChunks",
      "type": "error"
    },
    {
      "inputs": [],
      "name": "IsSubscriptionContent",
      "type": "error"
    },
    {
      "inputs": [],
      "name": "NotPurchased",
      "type": "error"
    },
    {
      "inputs": [],
      "name": "NotSeller",
      "type": "error"
    },
    {
      "inputs": [],
      "name": "NotSubscriptionContent",
      "type": "error"
    },
    {
      "inputs": [],
      "name": "PubKeyAlreadyUsed",
      "type": "error"
    },
    {
      "inputs": [],
      "name": "ReentrancyGuardReentrantCall",
      "type": "error"
    },
    {
      "inputs": [
        {
          "internalType": "int32",
          "name": "value",
          "type": "int32"
        }
      ],
      "name": "SecurityZoneOutOfBounds",
      "type": "error"
    },
    {
      "inputs": [],
      "name": "WithdrawFailed",
      "type": "error"
    },
    {
      "anonymous": false,
      "inputs": [
        {
          "indexed": true,
          "internalType": "uint256",
          "name": "id",
          "type": "uint256"
        },
        {
          "indexed": true,
          "internalType": "address",
          "name": "buyer",
          "type": "address"
        }
      ],
      "name": "AccessGranted",
      "type": "event"
    },
    {
      "anonymous": false,
      "inputs": [
        {
          "indexed": true,
          "internalType": "uint256",
          "name": "id",
          "type": "uint256"
        }
      ],
      "name": "ContentDeactivated",
      "type": "event"
    },
    {
      "anonymous": false,
      "inputs": [
        {
          "indexed": true,
          "internalType": "uint256",
          "name": "id",
          "type": "uint256"
        },
        {
          "indexed": true,
          "internalType": "address",
          "name": "buyer",
          "type": "address"
        }
      ],
      "name": "ContentPurchased",
      "type": "event"
    },
    {
      "anonymous": false,
      "inputs": [
        {
          "indexed": true,
          "internalType": "uint256",
          "name": "id",
          "type": "uint256"
        },
        {
          "indexed": true,
          "internalType": "address",
          "name": "seller",
          "type": "address"
        },
        {
          "indexed": false,
          "internalType": "string",
          "name": "title",
          "type": "string"
        },
        {
          "indexed": false,
          "internalType": "string",
          "name": "category",
          "type": "string"
        }
      ],
      "name": "ContentUploaded",
      "type": "event"
    },
    {
      "anonymous": false,
      "inputs": [
        {
          "indexed": true,
          "internalType": "uint256",
          "name": "id",
          "type": "uint256"
        },
        {
          "indexed": true,
          "internalType": "address",
          "name": "buyer",
          "type": "address"
        }
      ],
      "name": "SubscriptionRenewed",
      "type": "event"
    },
    {
      "anonymous": false,
      "inputs": [
        {
          "indexed": true,
          "internalType": "uint256",
          "name": "id",
          "type": "uint256"
        },
        {
          "indexed": true,
          "internalType": "address",
          "name": "buyer",
          "type": "address"
        }
      ],
      "name": "SubscriptionStarted",
      "type": "event"
    },
    {
      "inputs": [],
      "name": "USDC",
      "outputs": [
        {
          "internalType": "contract IERC20",
          "name": "",
          "type": "address"
        }
      ],
      "stateMutability": "view",
      "type": "function"
    },
    {
      "inputs": [],
      "name": "contentCount",
      "outputs": [
        {
          "internalType": "uint256",
          "name": "",
          "type": "uint256"
        }
      ],
      "stateMutability": "view",
      "type": "function"
    },
    {
      "inputs": [
        {
          "internalType": "address",
          "name": "",
          "type": "address"
        },
        {
          "internalType": "uint256",
          "name": "",
          "type": "uint256"
        }
      ],
      "name": "contentsBySeller",
      "outputs": [
        {
          "internalType": "uint256",
          "name": "",
          "type": "uint256"
        }
      ],
      "stateMutability": "view",
      "type": "function"
    },
    {
      "inputs": [
        {
          "internalType": "uint256",
          "name": "contentId",
          "type": "uint256"
        }
      ],
      "name": "deactivate",
      "outputs": [],
      "stateMutability": "nonpayable",
      "type": "function"
    },
    {
      "inputs": [
        {
          "internalType": "uint256",
          "name": "id",
          "type": "uint256"
        }
      ],
      "name": "getContent",
      "outputs": [
        {
          "components": [
            {
              "internalType": "uint256",
              "name": "id",
              "type": "uint256"
            },
            {
              "internalType": "address",
              "name": "seller",
              "type": "address"
            },
            {
              "internalType": "string",
              "name": "title",
              "type": "string"
            },
            {
              "internalType": "string",
              "name": "description",
              "type": "string"
            },
            {
              "internalType": "string",
              "name": "previewText",
              "type": "string"
            },
            {
              "internalType": "string",
              "name": "encryptedContentCID",
              "type": "string"
            },
            {
              "internalType": "uint256",
              "name": "price",
              "type": "uint256"
            },
            {
              "internalType": "uint256",
              "name": "subscriptionDuration",
              "type": "uint256"
            },
            {
              "internalType": "bool",
              "name": "active",
              "type": "bool"
            },
            {
              "internalType": "uint256",
              "name": "createdAt",
              "type": "uint256"
            },
            {
              "internalType": "string",
              "name": "category",
              "type": "string"
            },
            {
              "internalType": "uint256",
              "name": "keyChunks",
              "type": "uint256"
            }
          ],
          "internalType": "struct EncoraV3.ContentInfo",
          "name": "",
          "type": "tuple"
        }
      ],
      "stateMutability": "view",
      "type": "function"
    },
    {
      "inputs": [
        {
          "internalType": "address",
          "name": "seller",
          "type": "address"
        }
      ],
      "name": "getContentsBySeller",
      "outputs": [
        {
          "internalType": "uint256[]",
          "name": "",
          "type": "uint256[]"
        }
      ],
      "stateMutability": "view",
      "type": "function"
    },
    {
      "inputs": [
        {
          "internalType": "uint256[]",
          "name": "contentIds",
          "type": "uint256[]"
        }
      ],
      "name": "getMyAnalytics",
      "outputs": [
        {
          "internalType": "euint32[]",
          "name": "counts",
          "type": "bytes32[]"
        }
      ],
      "stateMutability": "view",
      "type": "function"
    },
    {
      "inputs": [
        {
          "internalType": "uint256[]",
          "name": "contentIds",
          "type": "uint256[]"
        }
      ],
      "name": "getMySubscriptions",
      "outputs": [
        {
          "internalType": "euint64[]",
          "name": "expiries",
          "type": "bytes32[]"
        }
      ],
      "stateMutability": "view",
      "type": "function"
    },
    {
      "inputs": [
        {
          "internalType": "uint256",
          "name": "contentId",
          "type": "uint256"
        },
        {
          "internalType": "address",
          "name": "buyer",
          "type": "address"
        }
      ],
      "name": "hasAccess",
      "outputs": [
        {
          "internalType": "bool",
          "name": "",
          "type": "bool"
        }
      ],
      "stateMutability": "view",
      "type": "function"
    },
    {
      "inputs": [
        {
          "internalType": "uint256",
          "name": "",
          "type": "uint256"
        },
        {
          "internalType": "address",
          "name": "",
          "type": "address"
        }
      ],
      "name": "hasPaid",
      "outputs": [
        {
          "internalType": "bool",
          "name": "",
          "type": "bool"
        }
      ],
      "stateMutability": "view",
      "type": "function"
    },
    {
      "inputs": [
        {
          "internalType": "string",
          "name": "category",
          "type": "string"
        },
        {
          "internalType": "uint256",
          "name": "offset",
          "type": "uint256"
        },
        {
          "internalType": "uint256",
          "name": "limit",
          "type": "uint256"
        }
      ],
      "name": "listByCategory",
      "outputs": [
        {
          "components": [
            {
              "internalType": "uint256",
              "name": "id",
              "type": "uint256"
            },
            {
              "internalType": "address",
              "name": "seller",
              "type": "address"
            },
            {
              "internalType": "string",
              "name": "title",
              "type": "string"
            },
            {
              "internalType": "string",
              "name": "description",
              "type": "string"
            },
            {
              "internalType": "string",
              "name": "previewText",
              "type": "string"
            },
            {
              "internalType": "string",
              "name": "encryptedContentCID",
              "type": "string"
            },
            {
              "internalType": "uint256",
              "name": "price",
              "type": "uint256"
            },
            {
              "internalType": "uint256",
              "name": "subscriptionDuration",
              "type": "uint256"
            },
            {
              "internalType": "bool",
              "name": "active",
              "type": "bool"
            },
            {
              "internalType": "uint256",
              "name": "createdAt",
              "type": "uint256"
            },
            {
              "internalType": "string",
              "name": "category",
              "type": "string"
            },
            {
              "internalType": "uint256",
              "name": "keyChunks",
              "type": "uint256"
            }
          ],
          "internalType": "struct EncoraV3.ContentInfo[]",
          "name": "",
          "type": "tuple[]"
        }
      ],
      "stateMutability": "view",
      "type": "function"
    },
    {
      "inputs": [
        {
          "internalType": "uint256",
          "name": "offset",
          "type": "uint256"
        },
        {
          "internalType": "uint256",
          "name": "limit",
          "type": "uint256"
        }
      ],
      "name": "listContents",
      "outputs": [
        {
          "components": [
            {
              "internalType": "uint256",
              "name": "id",
              "type": "uint256"
            },
            {
              "internalType": "address",
              "name": "seller",
              "type": "address"
            },
            {
              "internalType": "string",
              "name": "title",
              "type": "string"
            },
            {
              "internalType": "string",
              "name": "description",
              "type": "string"
            },
            {
              "internalType": "string",
              "name": "previewText",
              "type": "string"
            },
            {
              "internalType": "string",
              "name": "encryptedContentCID",
              "type": "string"
            },
            {
              "internalType": "uint256",
              "name": "price",
              "type": "uint256"
            },
            {
              "internalType": "uint256",
              "name": "subscriptionDuration",
              "type": "uint256"
            },
            {
              "internalType": "bool",
              "name": "active",
              "type": "bool"
            },
            {
              "internalType": "uint256",
              "name": "createdAt",
              "type": "uint256"
            },
            {
              "internalType": "string",
              "name": "category",
              "type": "string"
            },
            {
              "internalType": "uint256",
              "name": "keyChunks",
              "type": "uint256"
            }
          ],
          "internalType": "struct EncoraV3.ContentInfo[]",
          "name": "",
          "type": "tuple[]"
        }
      ],
      "stateMutability": "view",
      "type": "function"
    },
    {
      "inputs": [
        {
          "internalType": "uint256",
          "name": "contentId",
          "type": "uint256"
        }
      ],
      "name": "purchase",
      "outputs": [],
      "stateMutability": "nonpayable",
      "type": "function"
    },
    {
      "inputs": [
        {
          "internalType": "uint256",
          "name": "contentId",
          "type": "uint256"
        }
      ],
      "name": "renewSubscription",
      "outputs": [],
      "stateMutability": "nonpayable",
      "type": "function"
    },
    {
      "inputs": [
        {
          "internalType": "uint256",
          "name": "contentId",
          "type": "uint256"
        },
        {
          "internalType": "bytes32",
          "name": "buyerPubKeyX",
          "type": "bytes32"
        },
        {
          "internalType": "bytes32",
          "name": "buyerPubKeyY",
          "type": "bytes32"
        }
      ],
      "name": "requestAccess",
      "outputs": [
        {
          "internalType": "euint32[]",
          "name": "sealedChunks",
          "type": "bytes32[]"
        }
      ],
      "stateMutability": "nonpayable",
      "type": "function"
    },
    {
      "inputs": [
        {
          "internalType": "address",
          "name": "",
          "type": "address"
        }
      ],
      "name": "sellerBalance",
      "outputs": [
        {
          "internalType": "uint256",
          "name": "",
          "type": "uint256"
        }
      ],
      "stateMutability": "view",
      "type": "function"
    },
    {
      "inputs": [
        {
          "internalType": "uint256",
          "name": "contentId",
          "type": "uint256"
        }
      ],
      "name": "subscribe",
      "outputs": [],
      "stateMutability": "nonpayable",
      "type": "function"
    },
    {
      "inputs": [
        {
          "internalType": "string",
          "name": "title",
          "type": "string"
        },
        {
          "internalType": "string",
          "name": "description",
          "type": "string"
        },
        {
          "internalType": "string",
          "name": "previewText",
          "type": "string"
        },
        {
          "internalType": "string",
          "name": "encryptedContentCID",
          "type": "string"
        },
        {
          "components": [
            {
              "internalType": "uint256",
              "name": "ctHash",
              "type": "uint256"
            },
            {
              "internalType": "uint8",
              "name": "securityZone",
              "type": "uint8"
            },
            {
              "internalType": "uint8",
              "name": "utype",
              "type": "uint8"
            },
            {
              "internalType": "bytes",
              "name": "signature",
              "type": "bytes"
            }
          ],
          "internalType": "struct InEuint32[]",
          "name": "encSymKeyChunks",
          "type": "tuple[]"
        },
        {
          "internalType": "string",
          "name": "category",
          "type": "string"
        },
        {
          "internalType": "uint256",
          "name": "price",
          "type": "uint256"
        },
        {
          "internalType": "uint256",
          "name": "subscriptionDuration",
          "type": "uint256"
        }
      ],
      "name": "uploadContent",
      "outputs": [
        {
          "internalType": "uint256",
          "name": "id",
          "type": "uint256"
        }
      ],
      "stateMutability": "nonpayable",
      "type": "function"
    },
    {
      "inputs": [
        {
          "internalType": "uint256",
          "name": "",
          "type": "uint256"
        },
        {
          "internalType": "bytes32",
          "name": "",
          "type": "bytes32"
        }
      ],
      "name": "usedPubKeys",
      "outputs": [
        {
          "internalType": "bool",
          "name": "",
          "type": "bool"
        }
      ],
      "stateMutability": "view",
      "type": "function"
    },
    {
      "inputs": [],
      "name": "withdraw",
      "outputs": [],
      "stateMutability": "nonpayable",
      "type": "function"
    }
  ],
  "transactionHash": "0xfa45022e1849ab29de301ad12b73de84389878b57b8cf1cbc8efd83b13599969",
  "args": [
    "0x75faf114eafb1BDbe2F0316DF893fd58CE46AA4d"
  ],
  "numDeployments": 1,
  "solcInputHash": "086028eef32dd63ee3fc21f2c4b2f8b3",
  "bytecode": "0x60a034608857601f6123d638819003918201601f19168301916001600160401b03831184841017608c57808492602094604052833981010312608857516001600160a01b0381169081900360885760015f5560805260405161233590816100a1823960805181818161017401528181610d5201528181611206015281816114d101526116000152f35b5f80fd5b634e487b7160e01b5f52604160045260245ffdfe6080806040526004361015610012575f80fd5b5f3560e01c9081630a0dfd7d14611728575080630b7ad54c146116d75780630f574ba71461158257806323763a77146115475780633ccfd60b1461146a5780634336ffd0146113e4578063632530881461131b5780636621553b146112e35780637234b9541461128c57806379314e2f1461123557806389a30271146111f1578063916b9bef14611164578063cc45969614611147578063ced14198146110cf578063d050311314610f23578063d0e92a7c14610e42578063d71bb37b14610ce1578063d8bc7fff14610c98578063e3246d70146102c65763efef39a1146100f8575f80fd5b346102c2576020806003193601126102c257600435906001548210156102b057815f526002815260405f2060ff6009820154161561029e57600881015461028c576007810180546040516323b872dd60e01b8152336004820152306024820152604481019190915290926001600160a01b03919080826064815f7f000000000000000000000000000000000000000000000000000000000000000088165af180156102815761022c95600793600192610254575b50875f526003835260405f20335f52835260405f208260ff1982541617905554940193838554165f52600682526101e860405f20918254611aeb565b9055855f5281815261021a61020960405f205461020361225f565b9061209a565b875f528383528060405f2055611fea565b855f525260405f205491541690612049565b33907f2febd4b8e0a3f915ed8e3f7e154ad8207f9f8d6da9330ad7d5a17909f0e18d5d5f80a3005b61027390843d861161027a575b61026b8183611a2b565b810190611aa4565b505f6101ac565b503d610261565b6040513d5f823e3d90fd5b604051633f8c540760e01b8152600490fd5b6040516374e73b6d60e01b8152600490fd5b6040516315f2470160e31b8152600490fd5b5f80fd5b346102c2576101003660031901126102c2576004356001600160401b0381116102c2576102f790369060040161197e565b906024356001600160401b0381116102c25761031790369060040161197e565b916044356001600160401b0381116102c25761033790369060040161197e565b9190926064356001600160401b0381116102c25761035990369060040161197e565b906084356001600160401b0381116102c2576103799036906004016118fe565b92909160a4356001600160401b0381116102c25761039b90369060040161197e565b97909860088603610c86576001549a8b976001600160401b038e6103be8b611ba5565b6001558a5f52600260205260405f209a8b5560018b01336bffffffffffffffffffffffff60a01b82541617905511610681578d6103fe60028b0154611bb3565b90601f8211610c40575b8091505f601f8211600114610bd3575f91610bc8575b508160011b915f199060031b1c19161760028a01555b6001600160401b03821161068157819061045160038b0154611bb3565b601f8111610b78575b505f90601f8311600114610b0b575f92610b00575b50508160011b915f199060031b1c19161760038801555b6001600160401b0382116106815781906104a36004890154611bb3565b601f8111610ab0575b505f90601f8311600114610a43575f92610a38575b50508160011b915f199060031b1c19161760048601555b6001600160401b0382116106815781906104f56005870154611bb3565b601f81116109e8575b505f90601f831160011461097b575f92610970575b50508160011b915f199060031b1c19161760058401555b60c435600784015560e435600884015560098301805460ff1916600117905542600a8401556001600160401b0385116106815761056a600b840154611bb3565b601f811161092c575b50845f601f82116001146108c2575f916108b7575b508560011b905f198760031b1c191617600b8401555b5f5b6008811061069557505050506105ca6105b76122c9565b855f5260076020528060405f2055611fea565b835f5260076020526105e03360405f2054612049565b335f52600560205260405f2090815495600160401b8710156106815761067686948561064e6106388b7f8daa74a83f2eb8d1ef28b9efad4412c0afce7cb2deeea7e197c4b1e3d4bc5c5498600160209e018155611969565b819391549060031b91821b915f19901b19161790565b9055610667604051948594604086526040860191611bf9565b908382038a8501523397611bf9565b0390a3604051908152f35b634e487b7160e01b5f52604160045260245ffd5b828110156108a3578060051b820135607e19833603018112156102c25760808184013603126102c257604051906106cb826119ab565b838101803583526106de90602001611beb565b60208301526106f1604082860101611beb565b60408301526001600160401b0360608286010135116102c257830160608101350136601f820112156102c25761072e903690602081359101611b60565b606082015260ff60408201511660048103610884575090602060606107e493818060405161075b816119ab565b5f81525f868201525f604082015201528051908260ff85830151169101519060405192610787846119ab565b835284830152600460408301528282015260405194859283926313fce3b160e11b8452604060048501528051604485015260ff8682015116606485015260ff60408201511660848501520151608060a484015260c4830190611757565b33602483015203815f73ea30c4b8b44078bbf8a6ef5b9f1ec1626c7848d95af1918215610281575f92610850575b506006850154600160401b8110156106815782600193610843610638848761084a960160068c015560068b01611969565b9055611fea565b016105a0565b9091506020813d60201161087c575b8161086c60209383611a2b565b810103126102c25751908a610812565b3d915061085f565b604490604051906367cf307160e01b8252600482015260046024820152fd5b634e487b7160e01b5f52603260045260245ffd5b905086013589610588565b9050600b84015f5260205f20905f5b601f1988168110610914575086601f198116106108fb575b5050600185811b01600b84015561059e565b8701355f19600388901b60f8161c1916905588806108e9565b9091602060018192858c0135815501930191016108d1565b600b84015f5260205f20601f870160051c810160208810610969575b601f830160051c8201811061095e575050610573565b5f8155600101610948565b5080610948565b013590508a80610513565b909250600586015f5260205f20905f935b601f19841685106109d0576001945083601f198116106109b7575b505050811b01600584015561052a565b01355f19600384901b60f8161c191690558a80806109a7565b8181013583556020948501946001909301920161098c565b909150600586015f5260205f20601f840160051c810160208510610a31575b90849392915b601f830160051c82018110610a235750506104fe565b5f8155859450600101610a0d565b5080610a07565b013590508c806104c1565b909250600488015f5260205f20905f935b601f1984168510610a98576001945083601f19811610610a7f575b505050811b0160048601556104d8565b01355f19600384901b60f8161c191690558c8080610a6f565b81810135835560209485019460019093019201610a54565b909150600488015f5260205f20601f840160051c810160208510610af9575b90849392915b601f830160051c82018110610aeb5750506104ac565b5f8155859450600101610ad5565b5080610acf565b013590508e8061046f565b90925060038a015f5260205f20905f935b601f1984168510610b60576001945083601f19811610610b47575b505050811b016003880155610486565b01355f19600384901b60f8161c191690558e8080610b37565b81810135835560209485019460019093019201610b1c565b90915060038a015f5260205f20601f840160051c810160208510610bc1575b90849392915b601f830160051c82018110610bb357505061045a565b5f8155859450600101610b9d565b5080610b97565b90508b01355f61041e565b915060028b015f5260205f208c5f5b601f1984168110610c26575060019383601f19811610610c0d575b505050811b0160028a0155610434565b01355f19600384901b60f8161c191690555f8c81610bfd565b9084013582556020938401936001909201918e9101610be2565b60028b015f5260205f20906020601f820160051c83019110610c7f575b601f830160051c82018110610c745750508e610408565b5f8155600101610c5d565b5080610c5d565b60405163bee96d9160e01b8152600490fd5b346102c25760403660031901126102c257610cb16118b5565b6004355f52600360205260405f209060018060a01b03165f52602052602060ff60405f2054166040519015158152f35b346102c2576020806003193601126102c257600435906001548210156102b057815f526002815260405f20906008820190815415610e30576007830180546040516323b872dd60e01b81523360048201523060248201526044810191909152926001600160a01b039183856064815f7f000000000000000000000000000000000000000000000000000000000000000088165af194851561028157610dac600193610dd292600698610e13575b50610da66001600160401b0380925416824216611abc565b166121de565b885f526008865260405f20335f5286528060405f2055610dcb81611fea565b3390612049565b54940154165f5252610de960405f20918254611aeb565b905533907f397ce6feaffd0810f9718b20c5629673fd616f0054731403497fc814770349fc5f80a3005b610e2990883d8a1161027a5761026b8183611a2b565b508a610d8e565b604051633515da1960e21b8152600490fd5b346102c2576020806003193601126102c2576004356001600160401b0381116102c257610e739036906004016118fe565b90610e7d82611af8565b90610e8b6040519283611a2b565b828252610e9783611af8565b8285019390601f19013685375f5b818110610eef575050509060405192839281840190828552518091526040840192915f5b828110610ed857505050500390f35b835185528695509381019392810192600101610ec9565b80610efd6001928486611b0f565b355f526008875260405f20335f52875260405f2054610f1c8287611b4c565b5201610ea5565b346102c25760603660031901126102c2576004356001906001548110156102b057805f526020906002825260405f20926003936003845260405f20335f52845260ff60405f20541694835f526008956008865260405f20335f52865260405f205415901590816110c7575b506110b557604051858101906024358252604435604082015260408152610fb481611a10565b519020845f526004865260405f20815f52865260ff60405f2054166110a357845f526004865260405f20905f52855260405f20600160ff19825416179055604051946101208601908682106001600160401b03831117610681576101009160409894985260088752369087013760065f9601955b82811061106757604051806110638833897f3c3a9147a1fc73dd51a32f4d10c43d457e8cb826eb6f35cac6349eb965ba82b45f80a38261192e565b0390f35b8061108261107686938a611969565b33915490861b1c612049565b61108c8189611969565b905490841b1c61109c8289611b4c565b5201611028565b60405163bd14726760e01b8152600490fd5b6040516363aae7a360e01b8152600490fd5b905087610f8e565b346102c25760403660031901126102c2576004356110eb6118b5565b90805f52600360205260405f209160018060a01b031691825f5260205260ff60405f205416908115611125575b6020826040519015158152f35b90505f52600860205260405f20905f52602052602060405f2054151582611118565b346102c2575f3660031901126102c2576020600154604051908152f35b346102c25760203660031901126102c2576004356001548110156102b0575f818152600260205260409020600101546001600160a01b031633036111df57805f526002602052600960405f200160ff1981541690557f87eca800c5aafd6414b5e7f7f64649c6a947da66c7fdcbaa2b856462d388e25b5f80a2005b604051635ec8235160e01b8152600490fd5b346102c2575f3660031901126102c2576040517f00000000000000000000000000000000000000000000000000000000000000006001600160a01b03168152602090f35b346102c25760603660031901126102c2576004356001600160401b0381116102c25761128061127561126e61106393369060040161197e565b3691611b60565b604435602435611cb7565b6040519182918261183c565b346102c25760403660031901126102c2576112a561189f565b6001600160a01b03165f908152600560205260409020805460243591908210156102c2576020916112d591611969565b90546040519160031b1c8152f35b346102c25760203660031901126102c2576001600160a01b0361130461189f565b165f526006602052602060405f2054604051908152f35b346102c2576020806003193601126102c2576004356001600160401b0381116102c25761134c9036906004016118fe565b9161135683611af8565b916113646040519384611a2b565b838352601f1961137385611af8565b013660208501375f5b8481106113915760405180611063868261192e565b61139c818684611b0f565b355f52600283523360018060a01b03600160405f20015416036111df57806113c76001928785611b0f565b355f526007845260405f20546113dd8287611b4c565b520161137c565b346102c2576020806003193601126102c2576001600160a01b0361140661189f565b165f526005815260405f20906040518083838295549384815201905f52835f20925f5b858282106114545750505061144092500383611a2b565b6110636040519282849384528301906118cb565b8554845260019586019588955093019201611429565b346102c2575f3660031901126102c25760025f54146115355760025f55335f52600660205260405f2054801561152357335f5260066020525f60408120556040519063a9059cbb60e01b825233600483015260248201526020816044815f60018060a01b037f0000000000000000000000000000000000000000000000000000000000000000165af1801561028157611504575b60015f55005b61151c9060203d60201161027a5761026b8183611a2b565b50806114fe565b604051631d42c86760e21b8152600490fd5b604051633ee5aeb560e01b8152600490fd5b346102c25760403660031901126102c2576004355f52600460205260405f206024355f52602052602060ff60405f2054166040519015158152f35b346102c2576020806003193601126102c257600435906001548210156102b057815f526002815260405f2060ff6009820154161561029e576008810191825415610e30576007820180546040516323b872dd60e01b81523360048201523060248201526044810191909152936001600160a01b03929081866064815f7f000000000000000000000000000000000000000000000000000000000000000089165af192831561028157611675611656600193611692996007976116ba5750610da66001600160401b0380925416824216611abc565b895f526008855260405f20335f5285528060405f2055610dcb81611fea565b54940193838554165f52600682526101e860405f20918254611aeb565b33907f94304ade3423a99417a5bf2259631db61538c0edd8d6848e1335d9715900372c5f80a3005b6116d090873d891161027a5761026b8183611a2b565b508b610d8e565b346102c25760203660031901126102c2576004356116f3611a4c565b506001548110156102b0575f52600260205261106361171460405f20611f02565b60405191829160208352602083019061177b565b346102c25760403660031901126102c25761128081611749611063936119f5565b5f8152602435600435611cb7565b805180835260209291819084018484015e5f828201840152601f01601f1916010190565b9061182e6117ee6117dc6117ca6117b86101808751875260018060a01b036020890151166020880152604088015190806040890152870190611757565b60608701518682036060880152611757565b60808601518582036080870152611757565b60a085015184820360a0860152611757565b60c084015160c084015260e084015160e0840152610100808501511515908401526101208085015190840152610140808501519084830390850152611757565b916101608091015191015290565b6020808201906020835283518092526040830192602060408460051b8301019501935f915b8483106118715750505050505090565b909192939495848061188f600193603f198682030187528a5161177b565b9801930193019194939290611861565b600435906001600160a01b03821682036102c257565b602435906001600160a01b03821682036102c257565b9081518082526020808093019301915f5b8281106118ea575050505090565b8351855293810193928101926001016118dc565b9181601f840112156102c2578235916001600160401b0383116102c2576020808501948460051b0101116102c257565b60209060206040818301928281528551809452019301915f5b828110611955575050505090565b835185529381019392810192600101611947565b80548210156108a3575f5260205f2001905f90565b9181601f840112156102c2578235916001600160401b0383116102c257602083818601950101116102c257565b608081019081106001600160401b0382111761068157604052565b61018081019081106001600160401b0382111761068157604052565b6001600160401b03811161068157604052565b602081019081106001600160401b0382111761068157604052565b606081019081106001600160401b0382111761068157604052565b90601f801991011681019081106001600160401b0382111761068157604052565b60405190611a59826119c6565b5f61016083828152826020820152606080604083015280808301528060808301528060a08301528360c08301528360e083015283610100830152836101208301526101408201520152565b908160209103126102c2575180151581036102c25790565b9190916001600160401b0380809416911601918211611ad757565b634e487b7160e01b5f52601160045260245ffd5b91908201809211611ad757565b6001600160401b0381116106815760051b60200190565b91908110156108a35760051b0190565b8051156108a35760200190565b8051600110156108a35760400190565b8051600210156108a35760600190565b80518210156108a35760209160051b010190565b9291926001600160401b0382116106815760405191611b89601f8201601f191660200184611a2b565b8294818452818301116102c2578281602093845f960137010152565b5f198114611ad75760010190565b90600182811c92168015611be1575b6020831014611bcd57565b634e487b7160e01b5f52602260045260245ffd5b91607f1691611bc2565b359060ff821682036102c257565b908060209392818452848401375f828201840152601f01601f1916010190565b80545f9392611c2782611bb3565b918282526020936001916001811690815f14611c8b5750600114611c4d575b5050505050565b90939495505f92919252835f2092845f945b838610611c7757505050500101905f80808080611c46565b805485870183015294019385908201611c5f565b60ff19168685015250505090151560051b010191505f80808080611c46565b91908203918211611ad757565b82516001805494909390911515905f805b86888210611e8657505080851015611e6d578082611ce7878094611caa565b1115611e585750509291611d0f955b611cff85611af8565b9360409560405198899687611a2b565b808652601f19611d1e82611af8565b015f5b818110611e3a57505f93905083808a5b611d44575b505050505050505050505090565b82821080611e31575b15611e2c57815f528960026020818152825f2060ff60098201541615611e1d578b9081611deb575b50611ddd57878910611dc55792611db0611da0611db794611daa948897611dbd995f52525f20611f02565b9180938491611ba5565b9d611b4c565b528d611b4c565b50611ba5565b8a978a611d31565b505050975093611dd7611dbd91611ba5565b94611ba5565b5050509750611dbd90611ba5565b600b9150611e0990611e0286518094819301611c19565b0382611a2b565b8181519101208a51828c012014155f611d75565b505050509750611dbd90611ba5565b611d36565b50838110611d4d565b602091929750611e48611a4c565b82828d0101520190899691611d21565b611e629250611caa565b9291611d0f95611cf6565b50505050505050604051611e80816119f5565b5f815290565b9091825f52846020600281526040805f209060ff60098301541615611ef85783611ec9575b505050611ec357611ebb90611ba5565b915b01611cc8565b91611ebd565b600b92935090611e02611ee192518094819301611c19565b8181519101209087519088012014155f8080611eab565b5050505091611ebd565b611f0a611a4c565b50805490600b611fdb60018060a01b0360018401541692611e02600782015494600883015460ff600985015416600a8501549160068601549860409485519b611f528d6119c6565b8c5260208c01528451611f6c81611e028160028c01611c19565b858c01528451611f8381611e028160038c01611c19565b60608c01528451611f9b81611e028160048c01611c19565b60808c01528451611fb381611e028160058c01611c19565b60a08c015260c08b015260e08a01521515610100890152610120880152518094819301611c19565b61014083015261016082015290565b73ea30c4b8b44078bbf8a6ef5b9f1ec1626c7848d9803b156102c257604051631974142760e21b815260048101929092523060248301525f908290818381604481015b03925af180156102815761203e5750565b612047906119e2565b565b73ea30c4b8b44078bbf8a6ef5b9f1ec1626c7848d991823b156102c257604051631974142760e21b815260048101929092526001600160a01b03166024820152905f9082908183816044810161202d565b908115612198575b801561218a575b604051916120b683611a10565b6002835260403660208501376120cb83611b1f565b526120d582611b2c565b52602061211e604051926120e8846119f5565b5f84526121306040519485938493631888debd60e01b8552600480860152600860248601526080604486015260848501906118cb565b838103600319016064850152906118cb565b03815f73ea30c4b8b44078bbf8a6ef5b9f1ec1626c7848d95af1908115610281575f9161215b575090565b90506020813d602011612182575b8161217660209383611a2b565b810103126102c2575190565b3d9150612169565b506121936122c9565b6120a9565b90506121a26122c9565b906120a2565b90916121cd6121db9360048452601a60208501526080604085015260808401906118cb565b9160608184039101526118cb565b90565b602061211e6040516121ef816119f5565b5f8152604051936121ff856119ab565b600385526060368587013761221385611b1f565b52600561221f85611b2c565b525f61222a85611b3c565b526121306040519485938493631888debd60e01b855260056004860152601a60248601526080604486015260848501906118cb565b6121306020604051612270816119f5565b5f815260405190612280826119ab565b6003825260603684840137600161229683611b1f565b5260046122a283611b2c565b525f6122ad83611b3c565b52604051631888debd60e01b81529384928392600484016121a8565b61213060206040516122da816119f5565b5f8152604051906122ea826119ab565b60038252606036848401375f61229683611b1f56fea2646970667358221220caf14dda4c8de1c03a055168fe05ea20dd6ed907d05881bf06639d75bdfe738b64736f6c63430008190033",
  "devdoc": {
    "errors": {
      "ReentrancyGuardReentrantCall()": [
        {
          "details": "Unauthorized reentrant call."
        }
      ]
    },
    "kind": "dev",
    "methods": {
      "uploadContent(string,string,string,string,(uint256,uint8,uint8,bytes)[],string,uint256,uint256)": {
        "params": {
          "subscriptionDuration": "0 for one-time, or seconds (e.g. 2592000 = 30 days)"
        }
      }
    },
    "title": "EncoraV3",
    "version": 1
  },
  "userdoc": {
    "kind": "user",
    "methods": {
      "getMySubscriptions(uint256[])": {
        "notice": "Get encrypted subscription expiries. Only buyer can unseal."
      },
      "renewSubscription(uint256)": {
        "notice": "Renew subscription. Extends from now (not from previous expiry)."
      },
      "requestAccess(uint256,bytes32,bytes32)": {
        "notice": "Grant buyer access. Works for both one-time and subscription content."
      },
      "subscribe(uint256)": {
        "notice": "Subscribe to content. Expiry is FHE-encrypted — only buyer can see it."
      }
    },
    "notice": "Privacy-preserving content marketplace with FHE subscriptions. SUBSCRIPTION MODEL:   - subscriptionDuration > 0 means content is subscription-based   - subscriptionDuration == 0 means one-time purchase   - Subscription expiry is FHE-encrypted — only buyer can see when it expires   - Buyer's subscription feed is private — decrypted only in their browser",
    "version": 1
  },
  "storageLayout": {
    "storage": [
      {
        "astId": 19382,
        "contract": "contracts/EncoraV3.sol:EncoraV3",
        "label": "_status",
        "offset": 0,
        "slot": "0",
        "type": "t_uint256"
      },
      {
        "astId": 24443,
        "contract": "contracts/EncoraV3.sol:EncoraV3",
        "label": "contentCount",
        "offset": 0,
        "slot": "1",
        "type": "t_uint256"
      },
      {
        "astId": 24448,
        "contract": "contracts/EncoraV3.sol:EncoraV3",
        "label": "contents",
        "offset": 0,
        "slot": "2",
        "type": "t_mapping(t_uint256,t_struct(Content)24413_storage)"
      },
      {
        "astId": 24454,
        "contract": "contracts/EncoraV3.sol:EncoraV3",
        "label": "hasPaid",
        "offset": 0,
        "slot": "3",
        "type": "t_mapping(t_uint256,t_mapping(t_address,t_bool))"
      },
      {
        "astId": 24460,
        "contract": "contracts/EncoraV3.sol:EncoraV3",
        "label": "usedPubKeys",
        "offset": 0,
        "slot": "4",
        "type": "t_mapping(t_uint256,t_mapping(t_bytes32,t_bool))"
      },
      {
        "astId": 24465,
        "contract": "contracts/EncoraV3.sol:EncoraV3",
        "label": "contentsBySeller",
        "offset": 0,
        "slot": "5",
        "type": "t_mapping(t_address,t_array(t_uint256)dyn_storage)"
      },
      {
        "astId": 24469,
        "contract": "contracts/EncoraV3.sol:EncoraV3",
        "label": "sellerBalance",
        "offset": 0,
        "slot": "6",
        "type": "t_mapping(t_address,t_uint256)"
      },
      {
        "astId": 24474,
        "contract": "contracts/EncoraV3.sol:EncoraV3",
        "label": "purchaseCount",
        "offset": 0,
        "slot": "7",
        "type": "t_mapping(t_uint256,t_userDefinedValueType(euint32)23)"
      },
      {
        "astId": 24481,
        "contract": "contracts/EncoraV3.sol:EncoraV3",
        "label": "subscriptionExpiry",
        "offset": 0,
        "slot": "8",
        "type": "t_mapping(t_uint256,t_mapping(t_address,t_userDefinedValueType(euint64)25))"
      }
    ],
    "types": {
      "t_address": {
        "encoding": "inplace",
        "label": "address",
        "numberOfBytes": "20"
      },
      "t_array(t_uint256)dyn_storage": {
        "base": "t_uint256",
        "encoding": "dynamic_array",
        "label": "uint256[]",
        "numberOfBytes": "32"
      },
      "t_array(t_userDefinedValueType(euint32)23)dyn_storage": {
        "base": "t_userDefinedValueType(euint32)23",
        "encoding": "dynamic_array",
        "label": "euint32[]",
        "numberOfBytes": "32"
      },
      "t_bool": {
        "encoding": "inplace",
        "label": "bool",
        "numberOfBytes": "1"
      },
      "t_bytes32": {
        "encoding": "inplace",
        "label": "bytes32",
        "numberOfBytes": "32"
      },
      "t_mapping(t_address,t_array(t_uint256)dyn_storage)": {
        "encoding": "mapping",
        "key": "t_address",
        "label": "mapping(address => uint256[])",
        "numberOfBytes": "32",
        "value": "t_array(t_uint256)dyn_storage"
      },
      "t_mapping(t_address,t_bool)": {
        "encoding": "mapping",
        "key": "t_address",
        "label": "mapping(address => bool)",
        "numberOfBytes": "32",
        "value": "t_bool"
      },
      "t_mapping(t_address,t_uint256)": {
        "encoding": "mapping",
        "key": "t_address",
        "label": "mapping(address => uint256)",
        "numberOfBytes": "32",
        "value": "t_uint256"
      },
      "t_mapping(t_address,t_userDefinedValueType(euint64)25)": {
        "encoding": "mapping",
        "key": "t_address",
        "label": "mapping(address => euint64)",
        "numberOfBytes": "32",
        "value": "t_userDefinedValueType(euint64)25"
      },
      "t_mapping(t_bytes32,t_bool)": {
        "encoding": "mapping",
        "key": "t_bytes32",
        "label": "mapping(bytes32 => bool)",
        "numberOfBytes": "32",
        "value": "t_bool"
      },
      "t_mapping(t_uint256,t_mapping(t_address,t_bool))": {
        "encoding": "mapping",
        "key": "t_uint256",
        "label": "mapping(uint256 => mapping(address => bool))",
        "numberOfBytes": "32",
        "value": "t_mapping(t_address,t_bool)"
      },
      "t_mapping(t_uint256,t_mapping(t_address,t_userDefinedValueType(euint64)25))": {
        "encoding": "mapping",
        "key": "t_uint256",
        "label": "mapping(uint256 => mapping(address => euint64))",
        "numberOfBytes": "32",
        "value": "t_mapping(t_address,t_userDefinedValueType(euint64)25)"
      },
      "t_mapping(t_uint256,t_mapping(t_bytes32,t_bool))": {
        "encoding": "mapping",
        "key": "t_uint256",
        "label": "mapping(uint256 => mapping(bytes32 => bool))",
        "numberOfBytes": "32",
        "value": "t_mapping(t_bytes32,t_bool)"
      },
      "t_mapping(t_uint256,t_struct(Content)24413_storage)": {
        "encoding": "mapping",
        "key": "t_uint256",
        "label": "mapping(uint256 => struct EncoraV3.Content)",
        "numberOfBytes": "32",
        "value": "t_struct(Content)24413_storage"
      },
      "t_mapping(t_uint256,t_userDefinedValueType(euint32)23)": {
        "encoding": "mapping",
        "key": "t_uint256",
        "label": "mapping(uint256 => euint32)",
        "numberOfBytes": "32",
        "value": "t_userDefinedValueType(euint32)23"
      },
      "t_string_storage": {
        "encoding": "bytes",
        "label": "string",
        "numberOfBytes": "32"
      },
      "t_struct(Content)24413_storage": {
        "encoding": "inplace",
        "label": "struct EncoraV3.Content",
        "members": [
          {
            "astId": 24388,
            "contract": "contracts/EncoraV3.sol:EncoraV3",
            "label": "id",
            "offset": 0,
            "slot": "0",
            "type": "t_uint256"
          },
          {
            "astId": 24390,
            "contract": "contracts/EncoraV3.sol:EncoraV3",
            "label": "seller",
            "offset": 0,
            "slot": "1",
            "type": "t_address"
          },
          {
            "astId": 24392,
            "contract": "contracts/EncoraV3.sol:EncoraV3",
            "label": "title",
            "offset": 0,
            "slot": "2",
            "type": "t_string_storage"
          },
          {
            "astId": 24394,
            "contract": "contracts/EncoraV3.sol:EncoraV3",
            "label": "description",
            "offset": 0,
            "slot": "3",
            "type": "t_string_storage"
          },
          {
            "astId": 24396,
            "contract": "contracts/EncoraV3.sol:EncoraV3",
            "label": "previewText",
            "offset": 0,
            "slot": "4",
            "type": "t_string_storage"
          },
          {
            "astId": 24398,
            "contract": "contracts/EncoraV3.sol:EncoraV3",
            "label": "encryptedContentCID",
            "offset": 0,
            "slot": "5",
            "type": "t_string_storage"
          },
          {
            "astId": 24402,
            "contract": "contracts/EncoraV3.sol:EncoraV3",
            "label": "encryptedSymKey",
            "offset": 0,
            "slot": "6",
            "type": "t_array(t_userDefinedValueType(euint32)23)dyn_storage"
          },
          {
            "astId": 24404,
            "contract": "contracts/EncoraV3.sol:EncoraV3",
            "label": "price",
            "offset": 0,
            "slot": "7",
            "type": "t_uint256"
          },
          {
            "astId": 24406,
            "contract": "contracts/EncoraV3.sol:EncoraV3",
            "label": "subscriptionDuration",
            "offset": 0,
            "slot": "8",
            "type": "t_uint256"
          },
          {
            "astId": 24408,
            "contract": "contracts/EncoraV3.sol:EncoraV3",
            "label": "active",
            "offset": 0,
            "slot": "9",
            "type": "t_bool"
          },
          {
            "astId": 24410,
            "contract": "contracts/EncoraV3.sol:EncoraV3",
            "label": "createdAt",
            "offset": 0,
            "slot": "10",
            "type": "t_uint256"
          },
          {
            "astId": 24412,
            "contract": "contracts/EncoraV3.sol:EncoraV3",
            "label": "category",
            "offset": 0,
            "slot": "11",
            "type": "t_string_storage"
          }
        ],
        "numberOfBytes": "384"
      },
      "t_uint256": {
        "encoding": "inplace",
        "label": "uint256",
        "numberOfBytes": "32"
      },
      "t_userDefinedValueType(euint32)23": {
        "encoding": "inplace",
        "label": "euint32",
        "numberOfBytes": "32"
      },
      "t_userDefinedValueType(euint64)25": {
        "encoding": "inplace",
        "label": "euint64",
        "numberOfBytes": "32"
      }
    }
  }
}